:020000040800F2
:10000000F00C002061040008E7010008E901000885
:10001000ED010008F1010008F501000800000000F2
:10002000000000000000000000000000F9010008CE
:10003000FB01000800000000FD010008FF010008AE
:100040007B0400087B0400087B0400087B04000894
:100050007B0400087B0400087B0400087B04000884
:100060007B0400087B0400087B0400087B04000874
:100070007B0400087B0400087B0400087B04000864
:100080007B0400087B0400087B0400087B04000854
:100090007B0400087B0400087B040008E944000896
:1000A0007B0400087B0400087B0400087B04000834
:1000B000AD320008692F0008953200087B04000863
:1000C0007B0400087B0400087B0400087B04000814
:1000D0007B0400087B0400087B0400089B380008B0
:1000E0007B0400087B0400087B04000800F002F891
:1000F00000F06AF80AA090E8000C82448344AAF158
:100100000107DA4501D100F05FF8AFF2090EBAE855
:100110000F0013F0010F18BFFB1A43F0010318473B
:1001200084C80000A4C800000A444FF0000C10F876
:10013000013B13F0070408BF10F8014B1D1108BF65
:1001400010F8015B641E05D010F8016B641E01F805
:10015000016BF9D113F0080F1EBF10F8014BAD1C55
:100160000C1B09D16D1E58BF01F801CBFAD505E073
:1001700014F8016B01F8016B6D1EF9D59142D6D3CD
:10018000704700000023002400250026103A28BFF5
:1001900078C1FBD8520728BF30C148BF0B607047F9
:1001A00066290AF04487642908F0248100207047FA
:1001B0001FB508F0AFFC04000020002109F0C2FDCB
:1001C000E0601FBD10B510BD08F0E8FD1146FFF757
:1001D000EFFF00F005F908F006FE03B4FFF7F2FFA9
:1001E00003BC02F045FA704700BFFEE700BFFEE720
:1001F00000BFFEE700BFFEE77047704770477047DB
:100200000CB50020019000906C48006840F48030EC
:100210006A49086000BF6948006800F40030009037
:100220000198401C0190009818B90198B0F5A06F92
:10023000F1D16248006800F4003010B10120009054
:1002400001E0002000900098012843D15C4800683C
:1002500040F010005A4908600846006820F003008A
:1002600008600846006840F0020008605348406893
:10027000524948600846406848600846406840F473
:10028000806048600846406820F47C10486008465A
:10029000406840F4E81048600846006840F080700C
:1002A000086000BF4548006800F000700028F9D0E1
:1002B0004248406820F003004049486008464068D2
:1002C00040F00200486000BF3C48406800F00C006D
:1002D0000828F9D10CBD10B5FFF792FF10BD10B57D
:1002E0003648006840F0010034490860084640681C
:1002F000344908403149486008460068324908409E
:100300002E4908600846006820F4802008600846EE
:10031000406820F4FE0048604FF41F008860FFF73B
:10032000DAFF4FF000602949086010BD10B50021C8
:1003300000200022214B5B6803F00C0121B104294D
:1003400006D0082928D107E0214B224C236027E062
:100350001F4B204C236023E0184B5B6803F47010A4
:10036000164B5B6803F48032022303EB904022B902
:10037000194B4343174C23600DE0104B5B6803F4AB
:10038000003323B1144B4343124C236003E0104B62
:100390004343104C236003E00D4B0E4C236000BF21
:1003A00000BF064B5B68C3F303130C4CE15C094BC5
:1003B0001B68CB40074C236010BD000000100240BA
:1003C000002002400000FFF8FFFFF6FE08ED00E00D
:1003D00000127A000000002000093D000400002007
:1003E00002F0DCF84FF4E13002F051F902F092F93A
:1003F00002F0C2F9002141F61F4002F037FE4FF42F
:10040000165003F0FBF902F089FE02F0D4FE02F070
:1004100091FC02F05FFF07F002F907F014F902F017
:10042000D6FB47214FF6FF7002F018FD03F07CFB6E
:100430000FE00848007808B107F0A7FC0120064942
:10044000087000200549087000BF034800780028A4
:10045000FBD1EEE71B0000204900002048000020EF
:100460000948804709480047FEE7FEE7FEE7FEE748
:10047000FEE7FEE7FEE7FEE7FEE7FEE70448054984
:10048000054A064B70470000DF020008ED00000837
:10049000F0060020F00C0020F0080020F0080020FA
:1004A00031490143314A1160704770B50021002382
:1004B0000F22C47804B32D4C246804F4E064C4F51E
:1004C000E064210AC1F10403CA40447804FA03F14C
:1004D0008478144021430901254C0678A1550478FD
:1004E00004F01F050124AC4005786D11AD0005F145
:1004F000E025C5F8004109E0047804F01F05012457
:10050000AC401C4D0678761145F8264070BD1A4A5D
:100510000A400243154B1B1F1A60704739B1134A3A
:10052000121D12680243114B1B1D1A6006E00F4A90
:10053000121D126882430D4B1B1D1A607047042860
:1005400008D14FF0E021096941F004014FF0E022A9
:10055000116107E04FF0E021096921F004014FF03B
:10056000E0221161704700000000FA050CED00E088
:1005700000E400E080E100E080FFFF1F10B50446CA
:10058000FA48844208D10121401500F0ABFE002159
:10059000601500F0A7FE17E0F548844208D101215C
:1005A000001500F09FFE0021201500F09BFE0BE0DF
:1005B000F048844208D10121C80300F093FE0021D5
:1005C0004FF4004000F08EFE10BD30B50246002012
:1005D00000235068E84C20400D790C6844EA05245B
:1005E000204350609068E54C2040D1E902542C43F0
:1005F0004D7944EA450420439060D06A20F47000AD
:100600000C7C641EE4B2234340EA0350D06230BD48
:1006100000210160017141718160C160012101749B
:10062000704721B1826842F00102826003E0826873
:1006300022F001028260704721B1826842F4807228
:10064000826003E0826822F480728260704710B595
:100650000023CBB21AB144681C43446002E04468F2
:100660009C43446010BD816841F00801816070477F
:10067000014600208A6802F008020AB1012000E069
:1006800000207047816841F0040181607047014695
:1006900000208A6802F004020AB1012000E0002074
:1006A000704721B1826842F4A002826003E0826850
:1006B00022F4A00282607047014600208A6802F49A
:1006C00080020AB1012000E00020704710B50A4600
:1006D00000210023416821F46041531E41EA433167
:1006E000416010BD21B1426842F40062426003E003
:1006F000426822F4006242607047F0B504460D463D
:1007000000200021092D11DDE068A5F10A0606EBA5
:100710004607072606FA07F18843A5F10A0606EB05
:10072000460603FA06F10843E0600CE0206905EB99
:100730004507072606FA07F1884305EB450603FA45
:1007400006F108432061072A0FDA606B561E06EB9C
:1007500086071F2606FA07F18843561E06EB860613
:1007600005FA06F10843606322E00D2A0FDA206BD8
:10077000D61F06EB86071F2606FA07F18843D61F09
:1007800006EB860605FA06F10843206310E0E06AEE
:10079000A2F10D0606EB86071F2606FA07F188432D
:1007A000A2F10D0606EB860605FA06F10843E062A3
:1007B000F0BD21B1826842F48012826003E0826859
:1007C00022F48012826070470146C86C80B2704784
:1007D00066484C300068704721B1426842F480623C
:1007E000426003E0426822F480624260704721B1B7
:1007F000426842F48052426003E0426822F4805230
:10080000426070470A460021816821F4E0411143AB
:100810008160704721B1826842F40042826003E047
:10082000826822F400428260704721B1826842F4FB
:100830000212826003E0826822F402128260704732
:10084000014600208A6802F400120AB1012000E08B
:1008500000207047F0B5044615460020002200260F
:10086000092911DDE068A1F10A0707EB470C07270A
:1008700007FA0CF29043A1F10A0707EB470703FAC6
:1008800007F21043E0600CE0206901EB410C072700
:1008900007FA0CF2904301EB410703FA07F2104309
:1008A0002061A06BC0F30156EF1C06F1010CA7EB11
:1008B0000C0707EB870C1F2707FA0CF29043EF1C7D
:1008C00006F1010CA7EB0C0707EB870701FA07F20B
:1008D0001043A063F0BD10B50A4600210023816BD0
:1008E00021F44011531E41EA0351816310BD08B544
:1008F000002300930090009B0B440093009B1A6020
:1009000008BD08B5024600200090009201F12800C1
:10091000009B184400900098006880B208BD0A4609
:1009200000214168164B19401143416070474162F4
:10093000826270470A460021416821F01F0111437D
:100940004160704740B109490831096841F400012C
:10095000064A0832116007E004490831096821F4A9
:100960000001024A08321160704700000024014073
:1009700000280140003C0140FFFEF0FFFDF7F1FFC1
:10098000FFFD3FFF0246002013680B400BB1012022
:1009900000E000207047CA430260704770B502460D
:1009A0000020002300240B125568CEB205EA06048D
:1009B00015681D4015B10CB1012000E0002070BD8C
:1009C00000220A12D34303607047000010B50120D3
:1009D00000F0A2FC002000F09FFC10BD2A49086036
:1009E00070472949091F086070472749843108600A
:1009F000704701460020254A10884FF67F4210407C
:100A00000843224A10807047014600201F4A108880
:100A10004FF68072104008431C4A1080704708B59A
:100A200000220092194A2C3A0092009A0244009245
:100A3000009A116008BD08B50146002000901348D7
:100A40002C3800900098084400900098008808BD59
:100A50000D489C300068C0B270470C4808300088D0
:100A600040F0010009490831088070470648A0306D
:100A70000068C0B2704705480830008840F00200A6
:100A8000024908310880704704860D422C6C0040F2
:100A9000002044490860091D0860091D0860091DFF
:100AA000086041483F4914310860704700213D49C2
:100AB0008279002A3AD00A46126803689A430B46A4
:100AC0001A600A1D126803689A430B1D1A600279A6
:100AD00011440A6803681A430A60324A08321268ED
:100AE00003689A432F4B08331A601A1D1268036873
:100AF0009A432C4B0C331A604279102A0ED11A1FDC
:100B0000126803681A43274B08331A601A1D1268CB
:100B100003681A43234B0C331A600DE021494279D4
:100B200011440A6803681A430A6005E00279114417
:100B30000A6803689A430A607047002101600171E6
:100B40000C214171002181717047164910310968EB
:100B50000143144A10321160704701460020114AC7
:100B6000143212680A400AB1012000E000207047E8
:100B70000C49143108607047014600200022094BDF
:100B80001B6803EA0102074B14331B680B4013B1C7
:100B90000AB1012000E000207047024914310860CA
:100BA0007047000000040140FFFF0F0010B504462D
:100BB000CC48844208D10121042000F093FB00219D
:100BC000042000F08FFB46E0C748844208D1012191
:100BD000082000F087FB0021082000F083FB3AE0AA
:100BE000C248844208D10121102000F07BFB002183
:100BF000102000F077FB2EE0BD48844208D101218F
:100C0000202000F06FFB0021202000F06BFB22E091
:100C1000B848844208D10121402000F063FB002144
:100C2000402000F05FFB16E0B348844208D1012168
:100C3000802000F057FB0021802000F053FB0AE0E9
:100C4000AE48844207D10121801500F04BFB002102
:100C5000A01500F047FB10BD10B50121084600F0BB
:100C600041FB0021012000F03DFB10BD2DE9F041CA
:100C7000024600250026002000230024002791F8CA
:100C800003C00CF00F0591F803C00CF0100CBCF180
:100C9000000F03D091F802C04CEA050591F800C09E
:100CA000BCF1000F31D0146800202BE04FF0010C94
:100CB0000CFA00F3B1F800C00CEA03069E4220D102
:100CC00083004FF00F0C0CFA03F7BC4305FA03FC4A
:100CD0004CEA040491F803C0BCF1280F06D14FF090
:100CE000010C0CFA00FCC2F814C00AE091F803C031
:100CF000BCF1480F05D14FF0010C0CFA00FCC2F812
:100D000010C0401C0828D1D31460B1F800C0BCF159
:100D1000FF0F34DD546800202EE000F1080C4FF086
:100D2000010808FA0CF3B1F800C00CEA03069E4271
:100D300021D183004FF00F0C0CFA03F7BC4305FAE6
:100D400003FC4CEA040491F803C0BCF1280F05D160
:100D500000F1080C08FA0CF8C2F8148091F803C0EE
:100D6000BCF1480F07D100F1080C4FF0010808FA58
:100D70000CF8C2F81080401C0828CED35460BDE89F
:100D8000F0814FF6FF710180022181700421C17052
:100D900070470246002093680B400BB1012000E031
:100DA000002070470146886880B2704702460020E4
:100DB000D3680B400BB1012000E0002070470146D2
:100DC000C86880B2704701617047416170470AB1DD
:100DD000016100E041617047C16070474FF48032AB
:100DE0000A43826181618261826982697047024639
:100DF0000020434B18684FF68073184040EA0210F9
:100E000008433F4B186070473E49C8617047F0B5D2
:100E10000A46002300240021002500F00046B6F118
:100E2000004F02D1364EF16901E0354E7168C0F3D2
:100E3000034583B200F44016B6F5401F08D121F0F7
:100E400070612F4E766826F070662D4F7E6012E03E
:100E500000F48016B6F5801F06D1032606FA05F4C5
:100E6000A14341F0706106E0460D360103FA06F633
:100E7000B14341F0706122B1460D360103FA06F626
:100E8000314300F00046B6F1004F02D11C4EF16133
:100E900001E01B4E7160F0BD30B500228B071C0FC6
:100EA0000F2303FA04F2164B08338C1053F8243046
:100EB0009343134C08348D1044F8253023468C108E
:100EC00053F824308C07240F00FA04F423430C4C0D
:100ED00008348D1044F8253030BD0A49DC310860F3
:100EE0007047000000080140000C01400010014064
:100EF0000014014000180140001C01400020014086
:100F0000000001400000204210B50121080700F058
:100F1000F6F900214FF0805000F0F1F910BD2A4998
:100F20000862704728490861704701460020274A37
:100F3000106820F0E0000843106070472249A0319B
:100F40000860704710B502460020204B186820F05A
:100F50000300104318601E4B1B6843F004031C4C35
:100F60002360012901D130BF00E020BF184B1B686E
:100F700023F00403164C236010BD1448006840F0B1
:100F80000400124908600846006840F0020008604A
:100F90000F48006840F004000D49086000BF00BF22
:100FA00030BF704701460020084A52680A400AB123
:100FB000012000E0002070470449096841EA8001EF
:100FC000024A11607047000000000E4200700040AD
:100FD00010ED00E0DF48006840F00100DD490860E6
:100FE00008464068DC490840DA494860084600681D
:100FF000DA490840D74908600846006820F4802094
:1010000008600846406820F4FE0048604FF41F0066
:1010100088607047CF49096821F48031CD4A11605A
:101020001146096821F480211160B0F5803F03D09A
:10103000B0F5802F0ED106E0C649096841F4803131
:10104000C44A116007E0C349096841F4A021C14ABC
:10105000116000E000BF00BF704710B501460022DC
:10106000002300204A11012A02D1BA4C236806E06D
:10107000022A02D1B74C236A01E0B64C636A01F040
:101080001F02012494401C400CB1012000E000200C
:1010900010BD38B5002000900024002500BF31208D
:1010A000FFF7DBFF05460098401C00900098B0F564
:1010B000A06F01D0002DF2D03120FFF7CEFF08B194
:1010C000012400E00024204638BD01460020A14A4A
:1010D000106820F0F80040EAC10010607047A04995
:1010E00008607047024600209A4B586820F47C1034
:1010F00042EA01031843974B5860704798490866C5
:10110000704701460020934A506820F003000843CE
:10111000506070478F48406800F00C0070470146EF
:1011200000208C4A506820F0F0000843506070475F
:1011300001460020874A506820F4E0600843506070
:10114000704701460020834A506820F4605040EA0E
:10115000C1005060704729B17E4A527A02437D4BEC
:101160005A7204E07B4A527A82437A4B5A72704731
:101170007B49D8310860704701460020754A5068A5
:1011800020F440400843506070470021714A2032EB
:101190001170704A82F82010012802D004280AD168
:1011A00004E001216B4A2032117005E00521694AF3
:1011B0002032117000E000BF00BF7047694908602D
:1011C00070476449096A0143624A11627047654980
:1011D00044390860704730B5002100220024002304
:1011E0005C4D6D6805F00C0121B1042905D008297A
:1011F00023D105E05C4D056022E05B4D05601FE0FA
:10120000544D6D6805F47012524D6D6805F48034CC
:10121000022505EB92421CB9544D554305600BE085
:101220004C4D6D6805F400351DB1504D55430560BA
:1012300002E04D4D5543056002E04B4D056000BF97
:1012400000BF444D6D6805F0F0010909484D6B5C25
:101250000568DD4045603F4D6D6805F4E061090AB1
:10126000434D6B5C4568DD4085603A4D6D6805F423
:101270006051C90A3E4D6B5C4568DD40C560354D27
:101280006D6805F44041890B3A4D6B5CC568B5FB50
:10129000F3F5056130BD29B12E4A526902432D4B49
:1012A0005A6104E02B4A526982432A4B5A617047C3
:1012B00029B1284A92690243264B9A6104E0254AE3
:1012C00092698243234B9A61704729B1214AD269BE
:1012D0000243204BDA6104E01E4AD26982431D4B6F
:1012E000DA61704729B11B4AD2680243194BDA60B0
:1012F00004E0184AD2688243164BDA60704729B17D
:10130000144A12690243134B1A6104E0114A12692C
:101310008243104B1A617047124940390860704788
:101320000F49C86470470B49C87170470948406A43
:1013300040F0807007494862704701460020054A26
:1013400092680A400AB1012000E00020704701497C
:1013500088727047001002400000FFF8FFFFF6FEA1
:10136000000042428004424200127A0000093D001F
:10137000500000206000002010B50446FE48844262
:1013800008D10121C014FFF7ADFF0021E014FFF7E1
:10139000A9FFC4E0B4F1804F08D101210846FFF74E
:1013A000AEFF00210120FFF7AAFFB8E0F348844216
:1013B00008D101210220FFF7A2FF00210220FFF740
:1013C0009EFFACE0EE48844208D101210420FFF7E3
:1013D00096FF00210420FFF792FFA0E0E948844235
:1013E00008D101210820FFF78AFF00210820FFF71C
:1013F00086FF94E0E448844208D101211020FFF7E1
:101400007EFF00211020FFF77AFF88E0DF4884424A
:1014100008D101212020FFF772FF00212020FFF7D3
:101420006EFF7CE0DA48844208D101214014FFF7C6
:1014300059FF00216014FFF755FF70E0D548844242
:1014400009D10121C804FFF74DFF00214FF400200E
:10145000FFF748FF63E0D048844209D10121080525
:10146000FFF740FF00214FF48010FFF73BFF56E0ED
:10147000CA48844209D101214805FFF733FF002102
:101480004FF40010FFF72EFF49E0C548844208D111
:1014900001214020FFF733FF00214020FFF72FFFFD
:1014A0003DE0C048844208D101218020FFF727FF9A
:1014B00000218020FFF723FF31E0BB48844208D1A0
:1014C00001218015FFF71BFF0021A015FFF717FF73
:1014D00025E0B648844209D101210804FFF702FF44
:1014E00000214FF48030FFF7FDFE18E0B048844241
:1014F00009D101214804FFF7F5FE00214FF4003027
:10150000FFF7F0FE0BE0AB48844208D101218804CC
:10151000FFF7E8FE00214FF48020FFF7E3FE10BD47
:1015200000220288944B98420ED0994B98420BD0DF
:10153000B0F1804F08D0914B984205D0904B984223
:1015400002D0904B984204D14FF68F731A404B88CB
:101550001A438D4B984207D08C4B984204D04FF6DB
:10156000FF431A40CB881A4302808B8883850B88FF
:101570000385814B98420BD0854B984208D08B4B0A
:10158000984205D08A4B984202D08A4B984201D1AA
:101590000B7A038601238382704770B500240022F2
:1015A0000023058C4FF6FE7635400584028C838837
:1015B000048B4FF68F752C40B51E2C400D882C43A4
:1015C000751E2A400D892A434D882A436A4DA84238
:1015D0000BD06F4DA84208D0744DA84205D0744D71
:1015E000A84202D0734DA84213D14FF6F7752A4096
:1015F0004D892A434FF6FB752A408D882A434FF6C2
:10160000FF652B404FF6FF552B408D892B43CD892D
:101610002B4383800483CD888586028470BD70B59A
:10162000002400220023058C4FF6EF763540058418
:10163000028C8388048B48F6FF752C404FF6FF45DB
:101640002C400D884FF6FF7606EA05252C434FF611
:10165000DF752A400D8906EA05152A434D8806EAFA
:1016600005152A43444DA84202D0494DA8421DD138
:101670004FF67F752A404D894FF6FF7606EA05152D
:101680002A434FF6BF752A408D8806EA05152A437E
:101690004FF6FF352B404FF2FF752B408D8906EA40
:1016A00085052B43CD8906EA85052B43838004837A
:1016B000CD880587028470BD70B500240022002308
:1016C000058C4FF6FF6635400584028C8388848B39
:1016D0004FF68F752C404FF6FC752C400D882C432F
:1016E0004FF6FF552A400D894FF6FF7606EA05258D
:1016F0002A434D8806EA05252A431F4DA84202D0F9
:10170000234DA8421DD14FF2FF752A404D894FF657
:10171000FF7606EA05252A434FF6FF352A408D88D5
:1017200006EA05252A434EF6FF752B404DF6FF7558
:101730002B408D8906EA05152B43CD8906EA051550
:101740002B4383808483CD888587028470BD70B5E8
:10175000002200230024058C4EF6FF7635400584D8
:10176000038C8488828B48F6FF752A404FF6FF452C
:101770002A400D8820E00000002C014000040040B9
:1017800000080040000C0040001000400014004021
:1017900000340140004C0140005001400054014021
:1017A00000180040001C00400020004000400140A4
:1017B00000440140004801404FF6FF7606EA052547
:1017C0002A434DF6FF752B400D8906EA05352B435C
:1017D0004D8806EA05352B43FA4DA84202D0FA4D52
:1017E000A84208D14BF6FF752C408D894FF6FF7645
:1017F00006EA85152C4384808283CD88A0F840506A
:10180000038470BD828B4FF2FF331A408283828B38
:101810004FF6FF7303EA01231A4382837047F0B542
:101820000C461546002200210026078C4EF6FF7C50
:1018300007EA0C070784828B018C4FF6FF7707EAD3
:10184000043640F6FF473A404FF6FF7707EA052790
:101850003A434FF6FF7707EA03373A43D94FB84286
:101860000ED0D94FB8420BD0B0F1804F08D0D74F2F
:10187000B84205D0D64FB84202D0D64FB84206D1B2
:101880004DF6FF77394046F48057394305E047F677
:10189000FF57394044F48057394382830184F0BDB7
:1018A000828B4FF6F3731A408283828B0A438283C2
:1018B0007047F0B50C461546002200210026078C23
:1018C0004FF6FF6C07EA0C070784828B018C4FF6FA
:1018D000FF7707EA04264FF60C773A404FF6FF777A
:1018E00007EA03172F433A43B64FB8420ED0B64F1C
:1018F000B8420BD0B0F1804F08D0B44FB84205D0F9
:10190000B34FB84202D0B34FB84206D14FF6FF579B
:10191000394046F48077394305E04FF2FF573940AC
:1019200044F48077394382830184F0BD028B4FF207
:10193000FF331A400283028B4FF6FF7303EA012341
:101940001A4302837047F0B50C4615460022002169
:101950000026078C4FF6EF7C07EA0C070784028B02
:10196000018C4FF6FF7707EA041640F6FF473A402E
:101970004FF6FF7707EA03373A434FF6FF7707EA58
:1019800005273A438F4FB8420ED08F4FB8420BD045
:10199000B0F1804F08D08D4FB84205D08C4FB8427F
:1019A00002D08C4FB84206D14FF6DF77394046F06F
:1019B0001007394305E04FF65F77394044F01007D0
:1019C000394302830184F0BD028B4FF6F3731A4052
:1019D0000283028B0A4302837047F0B50C4615461A
:1019E00000220021068C4FF6FE773E400684028BD3
:1019F000018C4FF60C7632407E1C06EA03162E430D
:101A00003243704EB0420ED06F4EB0420BD0B0F1A8
:101A1000804F08D06D4EB04205D06D4EB04202D01E
:101A20006C4EB04206D14FF6FD76314044F00106CF
:101A3000314305E04FF6F576314044F0010631437D
:101A400002830184F0BD70B505460C465D488542B1
:101A50000ED05D4885420BD0B5F1804F08D05B4871
:101A6000854205D05A48854202D05A48854200D165
:101A700000E000BF208850B92389A28861882846E9
:101A8000FFF7ABFFE1882846FFF79EFF25E020889F
:101A900004280AD12389A28861882846FFF753FFCA
:101AA000E1882846FFF742FF17E0208808280AD17E
:101AB0002389A28861882846FFF7FBFEE188284633
:101AC000FFF7EEFE09E02389A28861882846FFF728
:101AD000A6FEE1882846FFF795FE70BD2DE9F0418E
:101AE00005460C4600260127608808B9022600E05A
:101AF0000026A088012801D1022700E001272088C4
:101B0000A0B92389A28861882846FFF766FFE1888B
:101B10002846FFF759FF23893A4631462846FFF702
:101B200012FFE1882846FFF701FF13E02389A2880E
:101B300061882846FFF707FFE1882846FFF7F6FE91
:101B400023893A4631462846FFF747FFE188284671
:101B5000FFF73AFFBDE8F0810A884B881A438B886B
:101B60001A43CB881A430B891A434B891A438B8932
:101B70001A43A0F8442070474FF6FF71818000217E
:101B80000180C18041800172704700210180418045
:101B90008180C180018141818181C18170470021A3
:101BA00001804180012181800021C1800181704735
:101BB0000021018041808180C1800181418181813A
:101BC00070470000002C0140003401400004004038
:101BD00000080040000C004021B1028842F00102E0
:101BE000028004E002884FF6FE731A4002807047BC
:101BF00031B1B0F8442042F40042A0F8442005E09E
:101C0000B0F84420C2F30E02A0F8442070471AB185
:101C100083890B43838102E083898B4383817047EF
:101C20008182704741EA0203A0F8483070471AB138
:101C300083890B43838102E083898B4383817047CF
:101C400001894FF6F8721140018170470A46002160
:101C500001894FF68F73194011430181704730B5E8
:101C600004460D4629462046FFF7F0FF208940F044
:101C70000700208130BD2DE9F04104460D4616468F
:101C80001F46602D06D13B46012231462046FFF714
:101C90005AFE05E03B46012231462046FFF79DFEF5
:101CA00029462046FFF7D2FF208940F00700208117
:101CB000BDE8F08130B50C4600210189C9B24FF66C
:101CC000FF7505EA0325154325432943018130BDEE
:101CD0002DE9F04105460E46174698460024434636
:101CE0003A4631462846FFF7E5FF2C894FF6F87053
:101CF000044044F007044FF68F70044044F0700431
:101D00002C81BDE8F081F0B504460D4616461F460D
:101D10003B46324629462046FFF7CCFF208940F457
:101D200080402081F0BD0185828270470A460021F3
:101D300001884FF68F731940114301807047F0B549
:101D40000C4615461E460021002200230189028B05
:101D5000038C4FF6F877394021434FF6FC473A4061
:101D600040F201173A434FF6DD773B404FF6FF77DD
:101D700007EA06172F433B43018102830384F0BD2A
:101D80000A460021018B4FF68F73194011430183DE
:101D900070470A460021018B48F6FF7319404FF641
:101DA000FF7303EA02231943018370470A460021A7
:101DB000818B4FF68F7319401143818370470A4618
:101DC0000021818B48F6FF7319404FF6FF7303EA39
:101DD000022319438183704721B1028842F08002B7
:101DE000028004E002884FF67F731A400280704739
:101DF00021B1828842F00402828004E082884FF69A
:101E0000FB731A408280704721B1828842F0080239
:101E1000828004E082884FF6F7731A408280704710
:101E200021B1828842F00102828004E082884FF66C
:101E3000FE731A40828070470A460021018B4FF6DC
:101E4000F77319401143018370470A460021018B43
:101E50004FF2FF7319404FF6FF7303EA0223194351
:101E6000018370470A460021818B4FF6F7731940B2
:101E70001143818370470A460021818B4FF2FF7323
:101E800019404FF6FF7303EA022319438183704719
:101E90000A460021018B4FF6FB7319401143018361
:101EA00070470A460021018B4FF6FF3319404FF669
:101EB000FF7303EA02231943018370470A46002196
:101EC000818B4FF6FB7319401143818370470A469B
:101ED0000021818B4FF6FF3319404FF6FF7303EA61
:101EE00002231943818370470A460021018B4FF674
:101EF0007F7319401143018370470A460021018B0B
:101F0000C1F30E014FF6FF7303EA02231943018365
:101F100070470A460021818B4FF67F7319401143A9
:101F2000818370470A460021818BC1F30E014FF671
:101F3000FF7303EA02231943818370470A46002195
:101F4000018C4FF6FD7319401143018470470A4616
:101F50000021018C4FF6F77319401143018470473B
:101F60000A460021018C4FF6DF7319404FF6FF73CC
:101F700003EA02131943018470470A460021018CC9
:101F80004FF67F7319404FF6FF7303EA02131943AC
:101F9000018470470A460021018C4FF6FF53194017
:101FA0004FF6FF7303EA02231943018470470A4680
:101FB0000021018C4FF2FF7319404FF6FF7303EAC3
:101FC00002231943018470470A460021018C4DF613
:101FD000FF7319404FF6FF7303EA0233194301847C
:101FE000704730B5002301248C40A3B2048C9C437D
:101FF0000484048C02FA01F5ADB22C43048430BD94
:1020000030B5002304248C40A3B2048C9C43048488
:10201000048C02FA01F5ADB22C43048430BD70B5D6
:102020000346002000241846183001258D40ACB22C
:102030001D8CA5431D8409B1082909D100EB61005D
:10204000056825F0700505600568154305600EE01C
:102050000D1FC5F34E052844056825F4E0450560CD
:1020600005684FF6FF7606EA02263543056070BD27
:1020700021B1028842F00202028004E002884FF699
:10208000FD731A400280704721B1028842F00402B9
:10209000028004E002884FF6FB731A40028070470A
:1020A00021B1828842F08002828004E082884FF66B
:1020B0007F731A408280704702884FF6F7731A4088
:1020C000028002880A430280704782884FF68F732D
:1020D0001A40828082880A438280704702894FF6C4
:1020E000F8731A40028102890A430281704702890B
:1020F0004FF67F731A40028102890A4302817047BA
:102100008184704781857047818670470187704759
:1021100081877047A0F84010704702884FF6FF4350
:102120001A40028002880A43028070470146888E66
:1021300070470146088F70470146888F70470146F7
:10214000B1F8400070470146888C70470146088D01
:10215000704702460020138A0B400BB1012000E0BB
:1021600000207047CA430282704730B50246002003
:1021700000230024158A05EA0103958905EA010474
:1021800013B10CB1012000E0002030BDCA4302822F
:102190007047000010B50446FB48844209D1012174
:1021A0008803FFF79FF800214FF48040FFF79AF86B
:1021B00032E0F648844209D101214804FFF79FF834
:1021C00000214FF40030FFF79AF825E0F0488442F0
:1021D00009D101218804FFF792F800214FF48020F3
:1021E000FFF78DF818E0EB48844209D10121C804BB
:1021F000FFF785F800214FF40020FFF780F80BE08F
:10220000E548844208D101210805FFF778F800214C
:102210004FF48010FFF773F810BD2DE9F04786B03A
:1022200005460E460024A24600BFA1460027B089FD
:1022300000B100BF2F462C8A4CF6FF700440F08896
:1022400004432C82AC894EF6F3100440B0883189E7
:102250000843718908430443AC81AC8A4FF6FF40C0
:102260000440B0890443AC8201A8FEF7B4FFC6481D
:10227000874202D1DDF810A001E0DDF80CA0A889AA
:1022800000F4004040B10AEBCA0000EB0A103168CC
:102290004900B0FBF1F807E00AEBCA0000EB0A10B6
:1022A00031688900B0FBF1F86420B8FBF0F004015C
:1022B0002009642101FB1089A88900F4004040B185
:1022C000322000EBC900B0FBF1F000F0070004433E
:1022D00008E0322000EB09106421B0FBF1F000F0BF
:1022E0000F0004432C8106B0BDE8F0874FF416516F
:1022F000016000218180C18001810C214181002188
:102300008181704710B502460020108A4FF2FF030A
:1023100018400B884C8823438C882343CC88234364
:102320001843108210BD0021018041808180C1804E
:10233000704721B1828942F40052828104E082898F
:102340004DF6FF731A4082817047F0B503460024B2
:1023500000260025002040F66A17B94200D100BFD0
:102360001846C1F3421401F01F06012707FA06F5CB
:10237000012C01D10C3004E0022C01D1103000E01E
:1023800014301AB107682F43076002E00768AF43B3
:102390000760F0BD1AB1838A0B43838202E0838A0F
:1023A0008B4383827047028A4FF6F0731A40028291
:1023B000028A0A430282704782894FF2FF731A40F1
:1023C000828182890A438281704721B1828942F0E9
:1023D0000202828104E082894FF6FD731A408281F5
:1023E0007047028A4FF6DF731A400282028A0A435C
:1023F0000282704721B1028A42F48042028204E0E4
:10240000028A4BF6FF731A4002827047C1F308023A
:102410008280704701468888C0F308007047818930
:1024200041F0010181817047028BD2B20283028B9D
:1024300042EA012202837047028B02F47F42028348
:10244000028B0A430283704721B1828A42F0200244
:10245000828204E0828A4FF6DF731A4082827047DC
:1024600021B1828A42F01002828204E0828A4FF611
:10247000EF731A408282704721B1828A42F00802CB
:10248000828204E0828A4FF6F7731A408282704794
:1024900021B1828942F40042828103E08289C2F341
:1024A0000E028281704721B1828A42F400628282E8
:1024B00004E0828A4FF2FF731A4082827047828A58
:1024C0004FF6FB731A408282828A0A4382827047E7
:1024D00021B1828A42F00202828204E0828A4FF6AF
:1024E000FD731A408282704702460020B1F5007FDA
:1024F00000D100BF13880B400BB1012000E0002089
:10250000704701F40072B2F5007F00D100BFCA43EA
:102510000280704770B50246002400230025002089
:1025200040F66A16B14200D100BFC1F3421501F076
:102530001F03012606FA03F3012D02D196893340C9
:1025400006E0022D02D1168A334001E0968A33401C
:102550000C12012606FA04F41688344013B10CB1AB
:10256000012000E0002070BD10B50022002340F6DD
:102570006A14A14200D100BF0A1201249440A3B200
:10258000DC43048010BD00000038014000440040DE
:1025900000480040004C00400050004010B56FF073
:1025A0000400FDF7CCFF2E4800682E49B0FBF1F087
:1025B0002D4908700846007800EB4001C1EBC010BF
:1025C0004FF6FF7101EAC0002849088010BD01469E
:1025D000254A12784A434FF0E0235A6100229A615B
:1025E0001A46126942F001021A6100BF4FF0E02260
:1025F000106900F001021AB100F48032002AF5D00F
:102600004FF0E022126922F001024FF0E0231A613C
:1026100000229A6170470146144A12884A434FF0DB
:10262000E0235A6100229A611A46126942F00102BF
:102630001A6100BF4FF0E022106900F001021AB1E8
:1026400000F48032002AF5D04FF0E022126922F027
:1026500001024FF0E0231A6100229A6170470000E6
:102660000000002000127A006400002066000020B4
:10267000014600BF704700BF244A128802F04002A2
:10268000002AF9D0C2B2214B1B1D1A80704710B529
:1026900086B00446012144F20400FEF709FE4FF41F
:1026A0000070ADF8140003208DF8160018208DF886
:1026B000170005A91648FEF7D9FA4FF48060ADF867
:1026C000140004208DF8170005A91148FEF7CEFA72
:1026D00001940020ADF80800ADF80A00ADF80C0038
:1026E000ADF810000C20ADF80E0001A90748FFF767
:1026F00094FD002240F225510448FFF726FE0121F7
:102700000248FFF716FE06B010BD00000038014079
:102710000008014008B501210420FEF7C9FD4FF46F
:102720008050ADF8000010208DF8030003208DF8D4
:10273000020069460C48FEF799FA08BD18B9002155
:102740000A4A11600FE00A490968491C084A1160E9
:10275000814208D105490968C943064AC2F8B01147
:102760000021034A1160704700080140B001214276
:102770006C0000200000214208B501210420FEF772
:1027800097FD4FF40040ADF8000048208DF803009D
:1027900069464B48FEF76AFA08BD01464948006899
:1027A00028B949480088401C474A108002E00020B0
:1027B000454A10804348006828B94448007810B959
:1027C0000120424A107042480078B0B93F48007872
:1027D000012807D13F480078401C3E4A1070012074
:1027E0003B4A10703B480078022806D10020394A45
:1027F0001070394A10800220704732480068012862
:1028000004D10020314A1070314A107031480078EC
:1028100001281CD130480088401C2F4A10801046E7
:10282000008888420ADD28480088884206DA0020AD
:10283000284A1070284A10800120DDE722480088CD
:10284000884204DD0020234A1070234A10800020B3
:10285000D2E72248007838B11A48006820B9002031
:102860001E4908700120704716480068012801D1F0
:102870001A4908700020F6E71948008840B9114845
:10288000006828B917480088401C1649088002E0F3
:1028900000201449088013480088C82807DD01205B
:1028A0000F49088000200F490880012070470C481C
:1028B0000088012802D10020094908800020F5E79E
:1028C000000801403C0121427600002070000020F9
:1028D00071000020720000207400002078000020A9
:1028E0007C0000207A00002010B50A461AB10123AE
:1028F000FE4C236002E00023FC4C2360002114E026
:102900000023FB4C236000F080031BB10123241F34
:10291000236003E00023F64C241F23600123F44CC2
:1029200023604306180E4B1CD9B20829E8DB0123AB
:10293000EE4C236010BD30B500241CE004F1B00162
:10294000C8B20021FFF7D0FF00210846FFF7CCFFF7
:1029500000211020FFF7C8FF002508E0E54901EB42
:10296000C501085D0121FFF7BFFF681CC5B2802DBE
:10297000F4DB601CC4B2082CE0DB30BD00B50021E4
:102980008D20FFF7B1FF00211420FFF7ADFF0021DC
:10299000AF20FFF7A9FF00BD00B500218D20FFF794
:1029A000A3FF00211020FFF79FFF0021AE20FFF7BB
:1029B0009BFF00BD30B500240CE0002506E00020A0
:1029C000CC4901EBC5010855681CC5B2802DF6DB6A
:1029D000601CC4B2082CF0DBFFF7ADFF30BDF0B5D2
:1029E000144600267F2801DC3F2900DDF0BD0B46A0
:1029F000CF1701EB5777FF10C7F10707FAB2CF17D0
:102A000001EB5777FF10A1EBC707FDB2C5F1070730
:102A10000123BB40DEB24CB1B64B03EBC0039B5C61
:102A20003343B44F07EBC007BB5408E0B14B03EB93
:102A3000C0039B5CB343AF4F07EBC007BB5400BF61
:102A4000D4E72DE9F04F80460C4615461E46A346B6
:102A5000A5F12000C5B200273EE00C2E07D105EB02
:102A60004500A54901EB800010F8079004E0A34859
:102A700000EB051010F807904FF0000A26E009F06F
:102A8000800028B121464046099AFFF7A8FF09E0D7
:102A9000099808B9012000E000200246214640467E
:102AA000FFF79DFF4FEA49604FEA1069601CC4B20E
:102AB000A4EB0B00B04205D15C4608F1010000F028
:102AC000FF0806E00AF1010000F0FF0ABAF1080F62
:102AD000D5DB00BF781CC7B2B742BEDBBDE8F08FC4
:102AE00010B50246012000E050430B1EA1F1010485
:102AF000E1B2F9D110BD2DE9FF4F81B007469146F3
:102B00001E460E9D4FF0000A002439E0301B401E87
:102B1000C1B20A20FFF7E4FFB9FBF0F00A21B0FBD5
:102B2000F1F201FB1208BAF1000F16D1701EA0429B
:102B300013DDB8F1000F0ED10120AB4605EBDB71C0
:102B4000491001FB04710090C8B22B462022029963
:102B5000FFF777FF12E04FF0010A0120AB4605EBCB
:102B6000DB71491001FB04710090C8B208F130011B
:102B7000CAB22B460299FFF764FF00BF601CC4B2C3
:102B8000B442C3DB05B0BDE8F08F78B505460E460C
:102B9000144618E07A2D03DD002506F11000C6B2B8
:102BA0003A2E04DD002005460646FFF703FF01200C
:102BB000009022780C2331462846FFF742FF05F1AA
:102BC0000800C5B2641C20780028E3D178BD08B5A0
:102BD00001210820FEF76CFB1020ADF800008DF8F5
:102BE000030002208DF8020069464548FEF73EF8D2
:102BF00001211120FEF75CFB4FF46040ADF80000AE
:102C000002208DF8020010208DF8030069463D482F
:102C1000FEF72CF80120FEF782F90020FEF7B5FA46
:102C20000020FDF7DEFE0020FEF779F90020304994
:102C3000083908606420FFF7EEFC01203249C1F832
:102C4000B4010021AE20FFF74FFE0021D520FFF791
:102C50004BFE00215020FFF747FE0021A820FFF780
:102C600043FE00213F20FFF73FFE0021D320FFF766
:102C70003BFE00210846FFF737FE00214020FFF70A
:102C800033FE00218D20FFF72FFE00211420FFF7D7
:102C90002BFE00212020FFF727FE00210220FFF756
:102CA00023FE0021A120FFF71FFE0021C020FFF717
:102CB0001BFE0021DA20FFF717FE00211220FFF78C
:102CC00013FE00218120FFF70FFE0021EF20FFF708
:102CD0000BFE0021D920FFF707FE0021F120FFF7AE
:102CE00003FE0021DB20FFF7FFFD0FE09081214272
:102CF000BC012242A401002022B1000896B50008C0
:102D0000000C014000100140000022420021302050
:102D1000FFF7EAFD0021A420FFF7E6FD0021A62031
:102D2000FFF7E2FD0021AF20FFF7DEFDFFF742FED7
:102D300008BD000000B587B001214FF40170FEF717
:102D4000B7FA4FF40040FEF717FA1020ADF8040070
:102D500000208DF8070001A93948FDF787FF3948A1
:102D6000FDF70CFC002002908DF80C008DF80D0092
:102D70004FF4602004900020059001208DF8180089
:102D800002A93048FDF721FC01212E48FDF749FC3E
:102D90002C48FDF768FC00BF2A48FDF769FC0028B5
:102DA000FAD12848FDF76EFC00BF2648FDF76FFCFE
:102DB0000028FAD107B000BD10B504460723012250
:102DC00021462048FDF799FC01211E48FDF769FCCA
:102DD00000BF02211B48FDF7D5FD0028F9D0194896
:102DE000FDF7F2FC10BD2DE9F04F87B00420FFF78E
:102DF000E3FF019007F048FA80464FF06632124B2D
:102E000007F092FA0022114BCDE9020107F08CFA8B
:102E100000220F4BCDE9040107F086FA0646002296
:102E20000C4B07F093F8044600220B4B07F08EF88A
:102E3000824607F0E3F90690069807B0BDE8F08FE8
:102E4000000801400024014066660A400000274057
:102E5000000059400000F83F0000B04030B585B098
:102E600005460C4601210220FEF72FFA0121082019
:102E7000FEF71EFA0120ADF8100028208DF813008F
:102E800004A96848FDF7F2FE0220ADF810001020FA
:102E90008DF8130002208DF8120004A96148FDF797
:102EA000E5FEADF80850ADF804400020ADF80A008A
:102EB000ADF8060001A95C48FEF732FB08205B492B
:102EC000088000204880012088800020C880088178
:102ED0005548FEF7B8FD1D208DF8000002208DF842
:102EE000010000208DF8020001208DF803006846E3
:102EF000FDF7DBFA012209214B48FEF788FE01218C
:102F00004948FEF769FE05B030BD10B501204849BB
:102F100008600F20FFF75BFB00204649C1F88401E1
:102F20004548007800F08000E8B14348007800F0A0
:102F30003F004249086008460088000408600846CF
:102F400000683F49098808443C4908600846006811
:102F5000AA2148434FF47A71B0FBF1F03749086079
:102F600000203549088010BD2F49103108883249AA
:102F7000097801F0800100294ED100F00101D1B1A2
:102F80002D49097801F04001A9B12B49097801F0D8
:102F90003F013F290AD12849098841F08001264A8A
:102FA00011804FF6FF71264A118004E022490988FA
:102FB000491C214A118000F0080169B31E490978B3
:102FC00001F0400199B11C49098841F080011A4A79
:102FD000118015493C310988194A11801249203164
:102FE000098821F40071104A2032118014E0002178
:102FF000114A1180124A11800F49098841F040019D
:103000000D4A11800021084A24321180111F0988BD
:1030100041F40071121F11800021034A1032118007
:1030200070470000000C014000040040A40500208F
:1030300084812142008021427E0000204400002043
:103040008000002008B501210820FEF731F94FF477
:103050007040ADF8000010208DF8030003208DF8BB
:10306000020069462A48FDF701FE08BD30B589B067
:1030700005460C46FFF7E6FF0121C802FEF718F9E6
:1030800001210420FEF714F94FF41060ADF8200080
:1030900018208DF8230003208DF8220008A91D4870
:1030A000FDF7E4FDADF81850ADF814400020ADF880
:1030B0001A00ADF8160005A91748FEF731FA60208E
:1030C000ADF804000120ADF806000020ADF80A00BC
:1030D000ADF80C0001A91048FEF75FFA01A90E48EF
:1030E000FEF735FB01210C48FEF782FD08210A4856
:1030F000FEF7A2FE08210848FEF7BDFE01210648A2
:10310000FEF76AFE01210448FEF766FD09B030BDF6
:10311000000C014000080140002C014000B587B0C0
:1031200001210846FEF7D1F801210420FEF7C0F87E
:103130000320ADF8000004208DF8030069466148C3
:10314000FDF794FD04A8FEF717FD0020ADF8100070
:103150004FF6FF70ADF814000020ADF81600ADF882
:10316000120004A94FF08040FEF7DAF900231A4656
:1031700003214FF08040FEF7E2FD01A8FEF70FFDAE
:103180000A20ADF80C0001A94007FEF75CFC012104
:103190008807FEF7E7FF012211469007FEF737FD8B
:1031A00000214FF08040FEF7ABFF01218807FEF7BA
:1031B00013FD07B000BD00B587B001210420FEF764
:1031C00084F801210820FEF773F8C020ADF8000054
:1031D00004208DF8030069463B48FDF747FD04A82D
:1031E000FEF7CAFC0020ADF810004FF6FF70ADF8F6
:1031F00014000020ADF81600ADF8120004A9334801
:10320000FEF78EF900231A4603213048FEF797FD9A
:1032100001A8FEF7C4FC0A20ADF80C0001A92B4858
:10322000FEF711FC01212948FEF79CFF01221146FF
:103230002648FEF7ECFC00212448FEF761FF01213F
:103240002248FEF7C9FC07B000BD0146022904D0A0
:1032500003290BD0042919D10FE04FF08042928C42
:1032600010B200224FF080439A8411E0184A12886D
:1032700010B20022164B1A800AE0144A2432128837
:1032800010B20022114B24331A8001E0002000BF4D
:1032900000BF70470D48103000880C48103000887F
:1032A00020F0010009491031088070474FF080403C
:1032B000008A4FF08040008A20F001004FF08041EA
:1032C0000882704700080140000C014000080040DF
:1032D0002404004008B501210820FDF7E9FF4FF460
:1032E0004070ADF8000010208DF8030003208DF829
:1032F00002006946F748FDF7B9FC08BD10B5F5486E
:10330000001D006820F0F000F249091D0860084621
:10331000006840F0300008600120EF490860EF4885
:10332000D0F8240108B9002010BD0120EA49091F86
:103330000860FFF74CF90020E849C1F8A401E6480D
:103340008038006808B10020EEE70120FFF73FF960
:103350000020E149091F08600120E5E710B5DD48BC
:10336000001D006820F0F000DA49091D08600846D9
:10337000006840F0300008600020D749091F08604D
:10338000D649C1F8A4010120FFF721F90120D24953
:10339000091F0860D149C1F8A401FFF718F910BD51
:1033A00010B50024CB48001D006820F0F000C9498A
:1033B000091D08600846006840F080000860012090
:1033C000C5490860FFF703F90120C449C1F8A0010D
:1033D000FFF7FDF80AE0601CC4B2322C03DDFFF7F2
:1033E000BDFF002010BD0120FFF7F1F8BA4880387A
:1033F00000680028EFD1B849091F08600120F1E7F3
:1034000010B50020B449091F0860B248001D0068CB
:1034100020F0F000AF49091D08600846006840F040
:10342000300008600020AD49C1F8A4010120FFF779
:10343000CEF80120A849091F0860FFF7C8F800204E
:10344000A649C1F8A00110BD10B50020A249091F6E
:103450000860A048001D006820F0F0009D49091D8B
:1034600008600846006840F03000086001209B4971
:10347000C1F8A401FFF7ABF801209749091F0860C4
:10348000FFF7A5F800209549C1F8A00110BD70B55F
:1034900004469048001D006820F0F0008D49091D89
:1034A00008600846006840F03000086000208A4943
:1034B000091F0860002516E0E009874908606006DA
:1034C000040E0120FFF783F801208449C1F8A00110
:1034D000FFF77DF800208049091F08600120FFF7F1
:1034E00076F8681CC5B2082DE6DB70BD2DE9F04109
:1034F00005460E4617469846FFF700FF10B9012013
:10350000BDE8F0816906080EFFF7C1FFFFF748FF2D
:1035100018B9FFF723FF0120F2E73046FFF7B7FFA6
:10352000FFF73EFF00240BE018F80400FFF7AFFFA1
:10353000FFF736FF18B9FFF711FF0020E0E7641C22
:10354000BC42F1DBFFF70AFF0020D9E770B5054662
:1035500000246048001D006820F0F0005D49091D4E
:1035600008600846006840F080000860002617E008
:1035700000205949091F08600220FFF728F80120A0
:103580005649C1F8A0016006040E5348803800680F
:1035900008B1601CC4B20220FFF719F8701CC6B253
:1035A000082EE5DB15B1FFF72BFF01E0FFF74CFF1D
:1035B000204670BD2DE9F04106460F4614461D46D3
:1035C000FFF79CFE10B90120BDE8F0817106080EDE
:1035D000FFF75DFFFFF7E4FE18B9FFF7BFFE01201C
:1035E000F2E73846FFF753FFFFF7DAFEFFF786FEF4
:1035F000012101EB4601C8B2FFF749FFFFF7D0FEFA
:103600000DE0012C04D10020FFF7A0FF287003E09B
:103610000120FFF79BFF28706D1C601EC4B2002CB8
:10362000EFD1FFF79BFE0020CEE770B505460E46B2
:103630000024FFF763FE2846FFF729FF641CFFF70D
:10364000AFFE3046FFF723FF641CFFF7A9FEFFF72C
:1036500055FE691CC8B2FFF71AFF641CFFF7A0FEF5
:103660000020FFF773FF0446FFF778FE204670BD89
:103670002DE9F0410746884615461E460024FFF70F
:103680003DFE3846FFF703FFFFF78AFE4046FFF78F
:10369000FEFEFFF785FEFFF731FE791CC8B2FFF78B
:1036A000F6FEFFF77DFE00BF0DE0681EA04204D0CD
:1036B0000120FFF74BFF305503E00020FFF746FFE6
:1036C0003055601CC4B2AC42EFDBFFF747FE20462A
:1036D000BDE8F081000C0140A4812142008021421C
:1036E0002DE9F04180460D4616461F460024FFF79F
:1036F00005FE4046FFF7CBFEFFF752FE2846FFF7D8
:10370000C6FEFFF74DFE00BF06E0385DFFF7BFFEC7
:10371000FFF746FE601CC4B2B442F6DBFFF71EFEA4
:103720000120BDE8F08170B505460E4614463146CD
:103730002846FFF77AFF2070012070BD37B5044698
:103740000D4602AB012229462046FFF7C9FF3EBDC8
:103750002DE9F8430746884614461D46089E6A46EA
:1037600041463846FFF7DFFF28B3601CFF2101FA0E
:1037700000F0C4F108012944491EFF220A41104308
:1037800000F0FF09C5F1080006FA00F0C6B2C4F166
:10379000070006419DF8000000EA090000909DF82E
:1037A0000000304300909DF8002041463846FFF766
:1037B000C5FFBDE8F8830020FBE7F8B506460F46D5
:1037C00014461D466A4639463046FFF7ACFF2DB118
:1037D0000120A0409DF80010084305E00120A04012
:1037E0009DF8001021EA0000C0B200909DF8002072
:1037F00039463046FFF7A2FFF8BD000010B586B08D
:10380000044601210820FDF753FD01218804FDF73E
:103810005CFD4FF48060ADF8140003208DF81600B5
:1038200018208DF8170005A9B348FDF71FFA4FF4CB
:103830000060ADF8140004208DF8170005A9AE480B
:10384000FDF714FA27208DF8000003208DF8010001
:103850008DF8020001208DF803006846FCF725FE74
:1038600001940020ADF80800ADF80A00ADF80C0096
:10387000ADF810000C20ADF80E0001A99F48FEF72E
:10388000CCFC012240F225519C48FEF75EFD01214F
:103890009A48FEF74EFD06B010BD10B540F2255116
:1038A0009648FEF737FE00287AD09448FEF7B2FD1E
:1038B00093490860084600789249087008460078E5
:1038C00091490978884212D18E4840788E494978CA
:1038D00088420CD18B4880788B498978884206D100
:1038E00000208A49087087490870487088708548A8
:1038F000007887490978884213D182484078844902
:10390000497888420DD17F488078814989788842FA
:1039100007D101207D49087000207A49087048705D
:10392000887077480068592802D1022079490870C8
:1039300073480068582802D1012076490870704801
:1039400000680A2865DD6E4800685A2809D1002001
:10395000714908707149087071490870714908709F
:1039600057E06748006841280AD101206A49087079
:1039700000206A4908706A4908706A49087048E07E
:103980005F48006845280CD1002063490870012079
:10399000624908700020624908706249087038E086
:1039A000A8E057480068422807D0554800684328D7
:1039B00003D05348006844280AD1002056490870B3
:1039C000564908705649087001205649087020E091
:1039D0004B480068462807D049480068472803D06C
:1039E0004748006848280BD100204B4908704B49D4
:1039F000087001204A49087000204A49087008E010
:103A000000204549087045490870454908704549F6
:103A100008703B4800680A2865DA01203D490870B3
:103A20003748006848B900203B4908703B49087096
:103A30003B4908703B49087055E03148006801284F
:103A400009D135490870002034490870344908709C
:103A50003449087047E02A48006805280BD1002047
:103A60002D49087001202D49087000202C4908704C
:103A70002C49087037E022480068022807D0204807
:103A80000068032803D01E48006804280AD10020DB
:103A900021490870214908702149087001202149F5
:103AA000087020E016480068062807D0144800680F
:103AB000072803D01248006808280BD100201649B7
:103AC0000870164908700120154908700020154932
:103AD000087008E00020104908701049087010496B
:103AE00008701049087007484078064988700846F1
:103AF0000078487010BD0000000C014000480040F4
:103B00009400002085000020900000201A00002072
:103B10008D00002019000020150000201600002054
:103B200017000020180000201FB501210846FDF7EE
:103B3000BFFB01210820FDF7BBFB2020ADF80C00E6
:103B400048208DF80F0003A91148FDF78FF80521D3
:103B50000120FDF7A1F92020019000208DF8080038
:103B60000C208DF8090001208DF80A0001A8FCF74F
:103B70009DFF17208DF8000002208DF80100012024
:103B80008DF802008DF803006846FCF78EFC1FBD1F
:103B9000000C01400146002901DA484200E00846D5
:103BA000704700B503460A46002B07DA0120FC499E
:103BB00008600020FB49C1F8B80106E00020F84980
:103BC00008600120F749C1F8B8011846FFF7E2FF85
:103BD000F5490880002A08DA0020F1490839086010
:103BE0000120F049C1F8B00107E00120EC49083993
:103BF00008600020EB49C1F8B0011046FFF7CAFF8A
:103C0000E9490C31088000BD70B506460D46E7490C
:103C1000304607F05BF80CD3E549304607F056F91B
:103C200007D3E4480078012803D040F2564085428B
:103C30000EDA01240020DA49091F0860D949C1F8C9
:103C4000BC01D74908390860D649C1F8B00100E085
:103C50000024204670BD70B506460C461546D54872
:103C6000007808B9002070BDD348008870B9D349E6
:103C7000304607F02BF909D2D149304607F026F833
:103C800004D21CB915B90120CB490880CA48008864
:103C9000012819D1CB480088401C80B2C94908804E
:103CA000322803DD00200880C3490880032C0BDD87
:103CB000032D09DD3C2C07DA3C2D05DA0020BE4936
:103CC000088008800120CEE70020CCE72DE9F041F4
:103CD00007460E4614461D46BB480088E0B92046FC
:103CE000FFF758FF02462846FFF754FF10441E28EE
:103CF00005DAB6480088401CB449088002E000207C
:103D0000B2490880B14800880A2805DD0120AE4983
:103D100008800020AD490880AB48008801281DD1EB
:103D2000AB480088401C80B2A9490880C82803DD40
:103D300000200880A4490880A649384607F0C6F844
:103D40000CD2A549304607F0C1F807D2A349304646
:103D500006F0BCFF02D202209B4908809A480088E6
:103D6000022816D19E480088401C80B29C490880D9
:103D7000642803DD00200880934908806019FFF75C
:103D800009FF872805DD00208F4908800120BDE854
:103D9000F0810020FBE741F6F420924909780129DF
:103DA00004D19149096864318F4A11608F490978BB
:103DB000012904D18E49096864398D4A11608A4904
:103DC00009684242914202DA4142874A11608649BB
:103DD0000968814201DD84490860854909684242D9
:103DE000914202DA4142824A116081490968814266
:103DF00001DD7F49086070472DE9F84F05460E4602
:103E000091467C480078582191FBF0F7384606F03F
:103E100031FF0446DFF8E0A14FF0000B774800784F
:103E2000012803D076480078012834D14FF07E5124
:103E30007448006806F07EFD7249074608604FF03E
:103E40007E5106F0A7FE07D1A819FFF7A3FE07468B
:103E500006F010FF6C4908606B4801686B4806F07B
:103E6000D7FD6B4908600846006806F037FD074635
:103E70004FF03332674B06F01BFA02D266486449B2
:103E8000086066496248006807F020F80BD2634872
:103E90005F49086007E062485D49086000205949B1
:103EA00008605949086055480078012808D15848E9
:103EB00001685C48006807F045F85A4908600FE05F
:103EC0004F480078012808D15148016855480068DA
:103ED00006F030FD5349086002E0002051490860B7
:103EE00021465048006806F0F1FF01D24D480460B9
:103EF00084F000474B480168384606F0E7FF03D2DC
:103F000084F000404749086036480078012803D013
:103F100036480078012802D14FF07C5B01E04FF079
:103F2000000B5946484606F005FF00903D480068E2
:103F300080F000485146404606F0FCFE07460099D6
:103F400007F000F8384908600846006806F056FE99
:103F5000BDE8F88F2DE9FC5F3448019034480090AB
:103F600034480078012807D122480078012803D17D
:103F700031483249086002E0314830490860194848
:103F80000078012860D11B48007806F08BFE0446BB
:103F900021462A48006806F03BFD2A4908606AE08D
:103FA000BC81214200802142342C0140000020C20B
:103FB000000020421A000020E00000200000E0C0C5
:103FC00000005041E2000020D8000020DA0000206C
:103FD000DC0000200020CB46000088C10000B84172
:103FE000DE00002015000020240000201600002024
:103FF000280000201900002000002842170000209F
:1040000018000020D4000020CC000020000048420E
:10401000D00000203333E33F9A99193F000040401D
:104020006666663FC4000020C80000200000A04271
:10403000CDCCCC3E4A00002000003442C00000201D
:104040000000B442B8000020FB48007801280FD1DE
:10405000FA48007806F026FE0546F948006880F028
:1040600000442946204606F0D3FCF649086002E0E9
:104070000020F4490860F448007801281BD1F34877
:104080000068B0F5FA7F16D2F1480078012812D006
:10409000F048007801280ED0E848007806F002FECB
:1040A0000546E748006880F000442946204606F0AF
:1040B000AFFCE4490860E8490968E84A126811441D
:1040C000084606F0D7FDE6490860E648006806F0B5
:1040D00005FC0646E44AE54B06F026F9044605F0E1
:1040E00047FEE0490860DE48006806F0F7FB8046BE
:1040F000DD4ADF4B06F018F904460D46D948006842
:1041000006F0ECFB064622462B4605F063FE82468F
:1041100005F02EFED349086008460168D5480068BE
:1041200006F008FCD3490860C6480168D148006819
:1041300006F008FFCF490860CF49CE48006806F076
:10414000C5FE02D2CC48CB490860CC49C9480068BA
:1041500006F0BCFD02D2C948C6490860C5480099AE
:10416000006806F0E7FD0446BE480199006806F0C5
:10417000E1FD0546214606F0DDFBC1490860C14866
:104180000168C1480068FFF73FFD012803D0BF4820
:104190000078012802D10020B6490860B8480068BC
:1041A00006F02CFDBDE8FC9F2DE9FF5F81460C4623
:1041B000DFF8DCA24FF07E5BB649484606F0C2FE4F
:1041C00003905946204606F0B5FD06465046039931
:1041D00006F0B0FD0746314606F0ACFB054606F09A
:1041E0000DFD0290AC480068401CAB4908600846D1
:1041F0000068072811DD00200860204606F06EFBED
:1042000005460E46484606F069FB07463A460B4609
:10421000A2A0CDE9005604F0ADF8029804B0BDE8C4
:10422000F09F70B53220FEF7B8FA0546012D07D190
:104230009648007808B9012000E0002093490870F2
:10424000022D07D19A48007808B9012000E000202B
:1042500097490870FEF710FB0446012C07D17A48F5
:10426000007808B9012000E000207749087070BD8F
:104270002DE9F04F89B0814603F0DDFB8D490860E0
:10428000B9F1010F1BD103F045FA8B4800687E4954
:1042900008608A49B1F9020006F0ECFC8849086020
:1042A0008649B1F9040006F0E5FC864908608649B4
:1042B000B1F9040006F0DEFC84490860B8E046214C
:1042C000D020FFF7B2F980464521D020FFF7ADF9A5
:1042D00008EB0027384606F0CDFC04464821D020E4
:1042E000FFF7A3F980464721D020FFF79EF908EB9E
:1042F0000027384606F0BEFC06463C21D020FFF7DA
:1043000094F980463B21D020FFF78FF908EB002776
:10431000384606F0AFFC83464021D020FFF785F9F0
:1043200080463F21D020FFF780F908EB0027384670
:1043300006F0A0FC05464FF08E41204606F0C6FD73
:1043400005D24FF08F41204606F0FCFD04464FF0A9
:104350008E41304606F0BAFD05D24FF08F4130460F
:1043600006F0F0FD06464FF08E41584606F0AEFDD1
:1043700005D24FF08F41584606F0E4FD83464FF0DA
:104380008E41284606F0A2FD05D24FF08F41284607
:1043900006F0D8FD054684F00040494908602846EB
:1043A00006F09CFACDE90001584606F097FA074658
:1043B000DDE9002305F0E0FB0022454BCDE90201D9
:1043C00005F0B2FF434A444BCDE9040105F0BEFDC0
:1043D000CDE9060105F0CCFC8246204606F07EFAC7
:1043E0004FF066323D4BCDE9060105F0AFFD0746C3
:1043F00005F0BEFC04463A480078022806D184F055
:1044000000473946504603F00BFE09E03448007877
:10441000032805D184F000473946504603F017FFC2
:10442000304800681849086026480660274805603B
:1044300009B0BDE8F08F0000160000201900002030
:10444000C0000020B80000204A00002044000020E6
:1044500017000020180000201C0000202000002071
:10446000B0000020B40000209A9999999999E93FE9
:104470009999C93FBC00002000401C4600401CC662
:10448000AC00002030000020340000201A00002082
:104490000000964300004040A80000204578616D70
:1044A000706C6509413A256609473A2566090A0094
:1044B0001B0000202C000020200100201001002003
:1044C000380000203C000020160100204C00002095
:1044D00000806640F1D4C853FB2109406666304035
:1044E000140000205401002010B554480068002832
:1044F0007ED12020524908605248007808B9012036
:1045000000E000204F4908704F48007801280BD187
:104510004E480078401CC0B24C4908700A2803D1AC
:10452000002008704849087046480078012805D1E5
:1045300047480078FFF79CFE002010BD0220FEF7E0
:1045400084FE4042434908600420FEF77EFE424953
:1045500008603F480078FFF78BFEFEF7D6FC3F4827
:10456000007810B96420FEF7E9F83C48007801288B
:1045700002D10020FEF7E2F8FEF735FC384908606A
:10458000FFF74FFE3748016837480068FFF70CFE19
:1045900036490860304801682E480068FFF7DAFCA9
:1045A00033490860334802682B480168294800688D
:1045B000FFF722FC304908602C4800682C49096844
:1045C000401A2D49096808442C49086027480068AA
:1045D00027490968401A28490968401A284908608B
:1045E000FFF7D9FB1C4803681A4802681E4800E020
:1045F00021E0016823480068FFF768FB10B1012043
:104600002149087014480268124801681648006879
:10461000FFF721FB10B100201B490870104801680A
:1046200011480068FFF7F0FA28B9154801681348E7
:104630000068FFF7B6FA00207FE7000014812142EE
:1046400014040140A400002049000020480000207C
:10465000140000201C000020200000204A00002040
:104660003000002038000020340000209800002096
:104670009C0000203C000020A0000020240000201E
:10468000280000204C0000201A00002038B5044605
:10469000FB4890F82400C0B114B10220009001E062
:1046A00000200090F64A1268D17BF54A52681078D3
:1046B0006B460122FEF71AFF10B14FF0FF3038BDF4
:1046C0009DF80010EE48417423E0ED48807A10B95F
:1046D0004FF0FF30F3E724B1E948407C08B10020F7
:1046E000EDE714B10120009001E000200090E44AC1
:1046F0001268D17BE24A526810786B460122FEF7BD
:10470000F5FE10B14FF0FF30D9E79DF80010DC48FE
:1047100041740020D3E738B5002419E0D848006878
:10472000C07AA04204D0D6480068407DA04200D1A3
:104730000CE0D349496808786B4601222146FEF710
:1047400039FF10B14FF0FF3038BD00BF601CC4B25C
:10475000CB4840680079A042E0DC0020F4E770B567
:1047600004460D46C6480068C07AA04204D0C4483A
:104770000068407DA04202D14FF0FF3070BDC048BC
:1047800040680079A04202DC4FF0FF30F6E7BC49F8
:10479000496808782B4601222146FEF70BFFEDE71A
:1047A00038B50446B64890F82300A04201D1002055
:1047B00038BD14B13020009001E000200090B048D6
:1047C000807C20B19DF8000040F002000090AC48D1
:1047D00090F8220020B19DF8000040F08000009089
:1047E000A74A1268117DA64A526810786B460122CA
:1047F000FEF77CFE10B14FF0FF30D9E7A04880F8FB
:1048000023400020D4E738B5044604F0700010B10E
:104810000120009005E014B10020009001E040204C
:104820000090974A1268917C954A526810786B46BE
:104830000122FEF75BFE20B1002191488172481EE3
:1048400038BD9DF8000020F040018D480173002024
:10485000009004F0400020B99DF8000040F00400F2
:10486000009004F0200020B99DF8000040F0020004
:10487000009004F0100020B99DF8000040F0010005
:10488000009004F0080020B99DF8000040F03800C6
:1048900000907B4A1268D17C794A526810786B4646
:1048A0000122FEF723FE20B1002175488172481EC7
:1048B000C6E724B1082C02D00020FFF771FF704832
:1048C0008472002101753220FDF7A5FE0020B7E7B4
:1048D00038B504466A48807CA04201D1002038BD2A
:1048E000002C46D0664A12681179654A52681078E1
:1048F0006B460122FEF75EFE10B14FF0FF30EEE78F
:104900009DF8000020F0200000905D4A12681179A7
:104910005B4A526810786B460122FEF7E7FD10B142
:104920004FF0FF30DBE70320FDF775FE022000901B
:10493000534890F8220020B19DF8000040F080001C
:1049400000904F4890F8230020B19DF8000040F0FF
:10495000300000904A4A1268117D494A5268107826
:104960006B460122FEF7C2FD002851D04FF0FF3008
:10497000B5E7434A12681179414A526810786B468C
:104980000122FEF717FE10B14FF0FF30A7E73C48B9
:10499000807A00F0010028B19DF8000040F020006E
:1049A000009004E09DF8000020F020000090344AC0
:1049B00012681179324A526810786B460122FEF76C
:1049C00095FD10B14FF0FF3089E70320FDF723FE7E
:1049D0002B4890F8220010B18020009001E00020C8
:1049E0000090274890F8230020B19DF8000040F087
:1049F00030000090224A1268117D214A52681078D6
:104A00006B460122FEF772FD10B14FF0FF3066E7F2
:104A10001B488474002062E708B51948807A10B9F1
:104A20004FF0FF3008BD00200090154A1268D17B7E
:104A3000134A526810786B460122FEF757FD10B1F9
:104A40004FF0FF30EEE70E4A126851790C4A526877
:104A500010786B460122FEF749FD10B14FF0FF3090
:104A6000E0E7074A12681179054A526810786B46E8
:104A70000122FEF73BFD28B14FF0FF30D2E70000E6
:104A8000E4000020F74890F82400002850D00C20C3
:104A90000090F44A12681179F24A526810786B4615
:104AA0000122FEF723FD10B14FF0FF30BAE7C0201E
:104AB0000090EC48807A00F0010020B19DF80000E1
:104AC00040F020000090E74A12681179E54A5268E8
:104AD00010786B460122FEF709FD10B14FF0FF3050
:104AE000A0E7E048407C10B10220009001E00020E7
:104AF0000090DC4A1268D17BDA4A526810786B4623
:104B00000122FEF7F3FC10B14FF0FF308AE70020DE
:104B10000090D44A12685179D24A526810786B4694
:104B20000122FEF7E3FC002852D04FF0FF3079E776
:104B300004200090CB4A12681179CA4A5268107852
:104B40006B460122FEF7D2FC10B14FF0FF3069E74F
:104B5000C448807C20B9C348807A00F0010010B9B5
:104B60004020009001E060200090BE4A1268117958
:104B7000BC4A526810786B460122FEF7B7FC10B1B0
:104B80004FF0FF304EE7B748407C10B10120009055
:104B900001E000200090B34A1268D17BB14A52680C
:104BA00010786B460122FEF7A1FC10B14FF0FF30E8
:104BB00038E7AC4A12685179AA4A52681078A94B72
:104BC00010330122FEF792FC10B14FF0FF3029E7BD
:104BD000002027E770B50446002624F00104A14810
:104BE00090F8240008B1002070BD9E48807A10B96A
:104BF0004FF0FF30F8E79B48057C807A20409949C8
:104C000008740846007CA04202D04FF0FF3600E056
:104C1000002614B99348007D18B10120FFF736FD36
:104C200002E00020FFF732FD3CB1FFF7F5FE20B1B6
:104C30008C4805744FF0FF30D6E73046D4E738B5DE
:104C400004468848807A10B94FF0FF3038BDBC2C3C
:104C500002DB0120009015E0622C02DB02200090B4
:104C600010E02A2C02DB032000900BE0142C02DB66
:104C70000420009006E00A2C02DB0520009001E0F1
:104C8000062000907748C07A9DF80010884201D134
:104C90000020DBE7734A12689178724A52681078F4
:104CA0006B460122FEF722FC10B14FF0FF30CDE73A
:104CB0009DF800106B48C1720020C7E738B5044664
:104CC000282C02DD4FF0FF3038BDDCB90020FFF7A3
:104CD00067FD00208DF8000007208DF80100614A73
:104CE0001268917C5F4A526810786B460222FEF788
:104CF000FDFB10B14FF0FF30E6E700215948017588
:104D00000020E1E70120FFF74BFD20208DF8000097
:104D1000012C06D100208DF801000520FFF78FFF40
:104D200017E0052C06DC01208DF801000520FFF7B7
:104D300086FF0EE0142C06DC02208DF801000A200C
:104D4000FFF77DFF05E003208DF801001420FFF739
:104D500076FF9DF80100072101EB8010C0B28DF8AD
:104D60000100404A1268917C3E4A526810786B46B6
:104D70000222FEF7BBFB10B14FF0FF30A4E7082181
:104D80003848817200210173012101750020FFF76D
:104D900021FF002098E738B504463248807A10B9E0
:104DA0004FF0FF3038BD2F4890F8240010B14FF07D
:104DB000FF30F7E72B48007D50B134B1282C04DCDC
:104DC000E0B2FFF77BFF0020ECE70020FFF776FF63
:104DD000042C01DA042404E0B4F57A7F01DD4FF4F9
:104DE0007A744FF47A7090FBF4F0401EC0B20090D9
:104DF0001C4A126851781B4A526810786B4601228F
:104E0000FEF774FB10B14FF0FF30CBE79DF80000C8
:104E1000401C4FF47A7191FBF0F081B21148C181CE
:104E20000146C9894810FFF70AFF0020BAE738B5E4
:104E300004460C48807A10B94FF0FF3038BD022C80
:104E400006D0042C07D0082C08D0102C0FD10BE072
:104E5000002000900EE0082000900BE01020009051
:104E600008E00000E40000201820009002E04FF06D
:104E7000FF30E3E700BFF948407A9DF80010B0EB3F
:104E8000E10F01D10020D9E7F44A1268D179F34A41
:104E9000526810786B460122FEF728FB10B14FF0E4
:104EA000FF30CBE79DF80000C110EC4841720020B4
:104EB000C4E738B50446E948807A10B94FF0FF30AE
:104EC00038BDFA2C09D0B4F5FA7F09D0B4F57A7F51
:104ED00009D0B4F5FA6F0CD108E0002000900BE087
:104EE0000820009008E01020009005E018200090B5
:104EF00002E04FF0FF30E3E700BFD848007A9DF8AA
:104F00000010B0EBE10F01D10020D9E7D34A1268BD
:104F10009179D24A526810786B460122FEF7E6FA80
:104F200010B14FF0FF30CBE79DF80000C010CB4927
:104F300008720020C4E71CB580208DF80000C74A25
:104F40001268917CC54A526810786B460122FEF7C0
:104F5000CDFA10B14FF0FF301CBD6420FDF75BFBB4
:104F600000208DF80000BD4A1268917CBB4A52684F
:104F700010786B460122FEF7B9FA10B14FF0FF30FE
:104F8000EAE7B64A1268917DB44A526810786B46D7
:104F90000622FEF70FFB10B14FF0FF30DCE79DF863
:104FA0000500C007400F9DF8031001F0010140EA21
:104FB00041009DF8011001F0010140EA010494B1A3
:104FC000012C03D10121A548C17431E0022C03D189
:104FD0000021A248C1742BE02146A1A003F0CAF928
:104FE0004FF0FF30B8E79D4A1268D1789B4A52686B
:104FF00010786B460122FEF7DDFA10B14FF0FF305A
:10500000AAE79DF8000000F00F042CB99E4803F0B9
:10501000B1F94FF0FF309FE7042C06D19BA003F0BD
:10502000A9F901218D48C17402E000218B48C174A7
:10503000FF218A488172FF2088490872FF21874832
:105040004172C1724FF6FF71C181FF2101748174F9
:105050000121017380F82210002180F8231041758E
:1050600001751630016041608160163880F82410A7
:1050700080F82510C1844FF4FA60FFF71AFF10B1D1
:105080004FF0FF3068E70220FFF7D1FE10B14FF07C
:10509000FF3061E72A20FFF7D2FD10B14FF0FF305B
:1050A0005AE73220FFF777FE10B14FF0FF3053E799
:1050B0000020FFF78FFD10B14FF0FF304CE70020CC
:1050C000FFF706FC10B14FF0FF3045E70020FFF777
:1050D0009AFB002040E770477CB504460D465F48C8
:1050E000807A00F0700010B94FF0FF307CBD5B4A51
:1050F0001268117B594A526810786B460622FEF7F7
:1051000059FA10B14FF0FF30F0E79DF801009DF81B
:10511000001040EA012000B220809DF803009DF8B5
:10512000021040EA012000B260809DF805009DF861
:10513000041040EA012000B2A08015B12846FFF714
:10514000CAFF0020D2E77CB504460D464348807A6A
:1051500000F0080010B94FF0FF307CBD3F4A1268E4
:10516000517B3E4A526810786B460622FEF722FABF
:1051700010B14FF0FF30F0E79DF801009DF80010EE
:1051800040EA012000B220809DF803009DF8021043
:1051900040EA012000B260809DF805009DF80410EF
:1051A00040EA012000B2A08015B12846FFF793FF26
:1051B0000020D2E72DE9FE4F05460C462748807AAD
:1051C00018B94FF0FF30BDE8FE8F244A1268917B7A
:1051D000224A5268107802AB0222FEF7EBF910B1B6
:1051E0004FF0FF30EFE79DF809009DF8081040EA06
:1051F000012006B214B12046FFF76DFF1749496838
:10520000C88805F04FFD154901904968B1F90800BB
:1052100005F030FD8346304605F02CFD59460090E0
:1052200005F090FE8246019905F0F2FB81461F4988
:1052300005F080FB80464FF08F4105F07BFD07466F
:1052400005F0DCFC28600020BDE710B588B00446FE
:105250001CB94FF0FF3008B010BD29E0E400002079
:10526000556E737570706F7274656420736F6674B9
:10527000776172652070726F6475637420726576F1
:105280002025642E0A00000054C9000848616C669D
:105290002073656E736974697669747920706172C0
:1052A0007420666F756E642E0D0A000000000C42BB
:1052B000206830B9606820B9A06810B9002008B033
:1052C00010BDFA494968087806AB03221146FEF77B
:1052D00071F910B14FF0FF30F1E79DF81800082187
:1052E00001EB201000F00F00ADF800009DF8190050
:1052F00001EB201000F00F00ADF802009DF81A003D
:1053000001EB201000F00F00ADF804002068410010
:10531000BDF90000403091FBF0F000B2ADF8100094
:1053200060684100BDF90200403091FBF0F000B22E
:10533000ADF81200A0684100BDF90400403091FBB7
:10534000F0F000B2ADF81400D8494968087806AB0F
:1053500006221146FEF72EF910B14FF0FF30AEE7EE
:105360009DF819009DF8181040EA012000B2ADF830
:1053700008009DF81B009DF81A1040EA012000B2B9
:10538000ADF80A009DF81D009DF81C1040EA0120B0
:1053900000B2ADF80C00BDF81000BDF808100844CC
:1053A00000B2ADF81000BDF81200BDF80A100844B4
:1053B00000B2ADF81200BDF81400BDF80C1008449E
:1053C00000B2ADF81400BDF81000000A8DF8180006
:1053D000BDF81000C0B28DF81900BDF81200000A27
:1053E0008DF81A00BDF81200C0B28DF81B00BDF890
:1053F0001400000A8DF81C00BDF81400C0B28DF82E
:105400001D00AA494968087806AB06221146FEF736
:105410006DF810B14FF0FF3051E700204FE7014623
:10542000A248007A30B1012807D0022809D0032809
:105430000FD10AE0FA2008800EE04FF4FA700880DD
:105440000AE04FF47A70088006E04FF4FA600880B2
:1054500002E00020088000BF00BF00207047014626
:105460009248407A30B1012807D0022808D003289A
:105470000CD108E0022008700BE00420087008E05E
:105480000820087005E01020087002E04FF0FF309F
:10549000704700BF8548C07C18B108784006000EF0
:1054A00008700020F4E701468048C07A082817D227
:1054B000DFE800F01704070A0D101318BC2008805D
:1054C00013E06220088010E02A2008800DE01420FC
:1054D00008800AE00A20088007E00520088004E030
:1054E00000BF00BF0020088000BF00BF0020704741
:1054F00001466E4890F8240010B14FF0FF3070471D
:105500006A48C08908800020F9E701460020088029
:10551000401E704701464FF0FF3070470146634818
:10552000007A30B1012807D0022808D003280CD116
:1055300008E05F4808600BE05E48086008E05E48ED
:10554000086005E05D48086002E04FF0FF307047FA
:1055500000BF0020FBE701465448407A30B10128E3
:1055600008D002280AD0032810D10BE04FF4804065
:1055700008800EE041F69C7008800AE04FF48050ED
:10558000088006E04FF40060088002E04FF0FF3032
:10559000704700BF4548C07C10B1088840100880A3
:1055A0000020F5E701464148007C08700020704764
:1055B00001463E48807A10B10120087001E00020C9
:1055C00008700020704738B504463848807A10B912
:1055D0004FF0FF3038BD354A1268117C334A5268AB
:1055E00010786B460222FDF7E5FF10B14FF0FF3057
:1055F000F0E79DF801009DF8001040EA012000B29C
:1056000020800020E6E72DE9FE4F074688469246B7
:105610001D46DDF830B000260024244890F8240010
:1056200010B1601EBDE8FE8F002028701F48807AF0
:1056300010B94FF0FF30F5E71C48007C10B94FF06F
:10564000FF30EFE71948007C00F0400008B1B01CC3
:10565000C6B21648007C00F0200008B1B01CC6B2EB
:105660001248007C00F0100008B1B01CC6B20F4810
:10567000007C00F0080008B1B01DC6B20B4A1268E9
:10568000917A0A4A526810786B460222FDF792FF1F
:1056900010B14FF0FF30C5E79DF801009DF80010F4
:1056A00040EA0129B1450BDA0020BBE7E400002005
:1056B000000003430000834233330342333383410A
:1056C000FC4840684088B9EB600F17DDF94A126862
:1056D000517CF84A526810786B460122FDF76AFF48
:1056E00010B14FF0FF309DE79DF8000000F0100072
:1056F00020B1FFF791F96FF0010093E75046FFF7F3
:10570000EAFCEC4A1268D17AEA4A526810786B4691
:105710003246FDF74FFF10B14FF0FF3082E799FBA3
:10572000F6F0401E8BF8000000202870B4422AD00A
:10573000E048007C00F0080028B3601C1DF8000061
:105740001DF8041040EA012000B2A8F80000E01C97
:105750001DF80010A01C1DF8000041EA002000B256
:10576000A8F80200601D1DF80010201D1DF80000A3
:1057700041EA002000B2A8F80400287840F00800B0
:105780002870A01D84B2B44213D0CA48007C00F037
:10579000400070B1601C1DF800001DF8041040EAC4
:1057A000012000B23880287840F040002870A01C0A
:1057B00084B2B44213D0BF48007C00F0200070B126
:1057C000601C1DF800001DF8041040EA012000B222
:1057D0007880287840F020002870A01C84B2B44261
:1057E00013D0B448007C00F0100070B1601C1DF8AC
:1057F00000001DF8041040EA012000B2B8802878AB
:1058000040F010002870A01C84B200200AE7F8B510
:1058100004460F461646A74890F8240010B94FF0EA
:10582000FF30F8BDA348807A10B94FF0FF30F8E799
:10583000A04A1268917A9F4A526810786B460222F9
:10584000FDF7B8FE10B14FF0FF30EAE79DF8010018
:105850009DF8001040EA0125A54203DA00203070CF
:10586000401EDEE7934840684088B5EB600F17DDC7
:10587000904A1268517C8F4A526810786B46012218
:10588000FDF798FE10B14FF0FF30CAE79DF8000019
:1058900000F0100020B1FFF7BFF86FF00100C0E783
:1058A000E2B2844B1B68D97A824B5B6818783B461E
:1058B000FDF780FE10B14FF0FF30B2E795FBF4F03A
:1058C000401E30700020ACE701467A4880F8221074
:1058D000002070477CB5054676494968087801ABD9
:1058E00004220D21FDF766FE08B107207CBD9DF85E
:1058F0000700C0F301109DF8041001F0E00140EA38
:10590000E1008DF800009DF80700C0F381009DF8CC
:10591000051001F0E00140EAE1008DF801009DF87A
:10592000070000F003009DF8061001F0E00140EAD6
:10593000E1008DF8020000241CE01DF8040018B9F5
:10594000002045F8240013E05B4845F8240006E0F9
:1059500055F82400594905F0EDF945F824001DF8E3
:105960000400401EC0B20DF804000028F0D100BFB2
:10597000601CC4B2032CE0DB0020B7E72DE9FE4F2A
:1059800006460F4600256846FFF7A4FF002442E0C4
:1059900056F8240057F82410A0EB010ABAF1000FC2
:1059A00001DB514601E0CAF10001084605F062F949
:1059B00083464FF08F4105F02BF880465DF82400B8
:1059C000002105F0E7F816D05DF82410404605F0F8
:1059D0001FF882464FF07E5105F0B4FA814629F057
:1059E000004A3748416A504605F070FA12D2012049
:1059F000A04005430EE03248C169404605F066F913
:105A000005D32F48016A404605F060FA02D2012012
:105A1000A0400543641C032CBADB2846BDE8FE8F7A
:105A20002DE9FC5F06460F460025224949680878A3
:105A300001AB03220D21FDF7BDFD10B10720BDE82C
:105A4000FC9F9DF8040000F01F008DF804009DF8F5
:105A5000050000F01F008DF805009DF8060000F01D
:105A60001F008DF80600002462E056F8240057F865
:105A70002410A0EB010BBBF1000F01DB594601E044
:105A8000CBF10001084605F0F5F84FF08F4100908A
:105A900004F0BEFF814601A8005DC0B30849086854
:105AA00005F000F983465946064804F0B1FF8046E8
:105AB0000FE00000E40000207B14AE3E1D5A843F3E
:105AC000B0BB000800B04C45FE49404605F032F935
:105AD000804601A8005D401EC0B201A908550028FB
